{
  "_format": "hh-sol-artifact-1",
  "contractName": "Medical",
  "sourceName": "contracts/Medical.sol",
  "abi": [
    {
      "inputs": [
        {
          "internalType": "string",
          "name": "_name",
          "type": "string"
        },
        {
          "internalType": "string",
          "name": "_username",
          "type": "string"
        }
      ],
      "name": "addPatient",
      "outputs": [],
      "stateMutability": "nonpayable",
      "type": "function"
    },
    {
      "inputs": [
        {
          "internalType": "string",
          "name": "_username",
          "type": "string"
        },
        {
          "internalType": "string",
          "name": "_id",
          "type": "string"
        }
      ],
      "name": "addRecord",
      "outputs": [],
      "stateMutability": "nonpayable",
      "type": "function"
    },
    {
      "inputs": [
        {
          "internalType": "string",
          "name": "_username",
          "type": "string"
        }
      ],
      "name": "deletePatient",
      "outputs": [],
      "stateMutability": "nonpayable",
      "type": "function"
    },
    {
      "inputs": [
        {
          "internalType": "string",
          "name": "_id",
          "type": "string"
        },
        {
          "internalType": "string",
          "name": "_username",
          "type": "string"
        }
      ],
      "name": "deleteRecord",
      "outputs": [],
      "stateMutability": "nonpayable",
      "type": "function"
    },
    {
      "inputs": [],
      "name": "getPatients",
      "outputs": [
        {
          "components": [
            {
              "internalType": "string",
              "name": "name",
              "type": "string"
            }
          ],
          "internalType": "struct Medical.Patient[]",
          "name": "",
          "type": "tuple[]"
        }
      ],
      "stateMutability": "view",
      "type": "function"
    },
    {
      "inputs": [
        {
          "internalType": "string",
          "name": "_username",
          "type": "string"
        },
        {
          "internalType": "string",
          "name": "id",
          "type": "string"
        }
      ],
      "name": "getPatientsRecords",
      "outputs": [
        {
          "components": [
            {
              "internalType": "string",
              "name": "id",
              "type": "string"
            },
            {
              "internalType": "address[]",
              "name": "doctors",
              "type": "address[]"
            }
          ],
          "internalType": "struct Medical.Record",
          "name": "",
          "type": "tuple"
        }
      ],
      "stateMutability": "view",
      "type": "function"
    },
    {
      "inputs": [
        {
          "internalType": "string",
          "name": "_username",
          "type": "string"
        },
        {
          "internalType": "string",
          "name": "_id",
          "type": "string"
        },
        {
          "internalType": "address",
          "name": "_doctor",
          "type": "address"
        }
      ],
      "name": "grantAccess",
      "outputs": [],
      "stateMutability": "nonpayable",
      "type": "function"
    },
    {
      "inputs": [
        {
          "internalType": "uint256",
          "name": "",
          "type": "uint256"
        },
        {
          "internalType": "string",
          "name": "",
          "type": "string"
        }
      ],
      "name": "patientRecords",
      "outputs": [
        {
          "internalType": "string",
          "name": "id",
          "type": "string"
        }
      ],
      "stateMutability": "view",
      "type": "function"
    },
    {
      "inputs": [
        {
          "internalType": "uint256",
          "name": "",
          "type": "uint256"
        }
      ],
      "name": "patients",
      "outputs": [
        {
          "internalType": "string",
          "name": "name",
          "type": "string"
        }
      ],
      "stateMutability": "view",
      "type": "function"
    },
    {
      "inputs": [
        {
          "internalType": "string",
          "name": "_username",
          "type": "string"
        },
        {
          "internalType": "string",
          "name": "_id",
          "type": "string"
        },
        {
          "internalType": "address",
          "name": "_doctor",
          "type": "address"
        }
      ],
      "name": "revokeAccess",
      "outputs": [],
      "stateMutability": "nonpayable",
      "type": "function"
    }
  ],
  "bytecode": "0x608060405234801561001057600080fd5b50611698806100206000396000f3fe608060405234801561001057600080fd5b506004361061009e5760003560e01c8063a493674811610066578063a493674814610145578063a545402114610175578063bcb1f2f614610191578063c9076c9b146101c1578063c9596248146101dd5761009e565b806312ad1c37146100a357806319dddfa5146100c1578063239ee6c1146100dd5780633935b076146100f957806393119a8314610115575b600080fd5b6100ab6101f9565b6040516100b891906112f8565b60405180910390f35b6100db60048036038101906100d69190610f1c565b6102e6565b005b6100f760048036038101906100f29190610eac565b61035f565b005b610113600480360381019061010e9190610f88565b6103ef565b005b61012f600480360381019061012a9190611007565b6104aa565b60405161013c919061131a565b60405180910390f35b61015f600480360381019061015a9190610f1c565b61055c565b60405161016c919061133c565b60405180910390f35b61018f600480360381019061018a9190610f88565b6106e9565b005b6101ab60048036038101906101a69190611030565b610968565b6040516101b8919061131a565b60405180910390f35b6101db60048036038101906101d69190610e6b565b610a31565b005b6101f760048036038101906101f29190610f1c565b610ad0565b005b60606002805480602002602001604051908101604052809291908181526020016000905b828210156102dd5783829060005260206000200160405180602001604052908160008201805461024c9061151b565b80601f01602080910402602001604051908101604052809291908181526020018280546102789061151b565b80156102c55780601f1061029a576101008083540402835291602001916102c5565b820191906000526020600020905b8154815290600101906020018083116102a857829003601f168201915b5050505050815250508152602001906001019061021d565b50505050905090565b600080826040516102f791906112e1565b9081526020016040518091039020549050600160008281526020019081526020016000208360405161032991906112e1565b9081526020016040518091039020600080820160006103489190610be7565b6001820160006103589190610c27565b5050505050565b60026040518060200160405280858152509080600181540180825580915050600190039060005260206000200160009091909190915060008201518160000190805190602001906103b1929190610c48565b50505060016002805490506103c69190611469565b600083836040516103d89291906112c8565b908152602001604051809103902081905550505050565b6000808460405161040091906112e1565b9081526020016040518091039020549050600160008281526020019081526020016000208360405161043291906112e1565b9081526020016040518091039020600101829080600181540180825580915050600190039060005260206000200160009091909190916101000a81548173ffffffffffffffffffffffffffffffffffffffff021916908373ffffffffffffffffffffffffffffffffffffffff16021790555050505050565b600281815481106104ba57600080fd5b906000526020600020016000915090508060000180546104d99061151b565b80601f01602080910402602001604051908101604052809291908181526020018280546105059061151b565b80156105525780601f1061052757610100808354040283529160200191610552565b820191906000526020600020905b81548152906001019060200180831161053557829003601f168201915b5050505050905081565b610564610cce565b6000808460405161057591906112e1565b908152602001604051809103902054905060016000828152602001908152602001600020836040516105a791906112e1565b90815260200160405180910390206040518060400160405290816000820180546105d09061151b565b80601f01602080910402602001604051908101604052809291908181526020018280546105fc9061151b565b80156106495780601f1061061e57610100808354040283529160200191610649565b820191906000526020600020905b81548152906001019060200180831161062c57829003601f168201915b50505050508152602001600182018054806020026020016040519081016040528092919081815260200182805480156106d757602002820191906000526020600020905b8160009054906101000a900473ffffffffffffffffffffffffffffffffffffffff1673ffffffffffffffffffffffffffffffffffffffff168152602001906001019080831161068d575b50505050508152505091505092915050565b600080846040516106fa91906112e1565b90815260200160405180910390205490506000600160008381526020019081526020016000208460405161072e91906112e1565b9081526020016040518091039020600101905060005b8180549050811015610960578373ffffffffffffffffffffffffffffffffffffffff168282815481106107a0577f4e487b7100000000000000000000000000000000000000000000000000000000600052603260045260246000fd5b9060005260206000200160009054906101000a900473ffffffffffffffffffffffffffffffffffffffff1673ffffffffffffffffffffffffffffffffffffffff16141561094d5781600183805490506107f99190611469565b81548110610830577f4e487b7100000000000000000000000000000000000000000000000000000000600052603260045260246000fd5b9060005260206000200160009054906101000a900473ffffffffffffffffffffffffffffffffffffffff16828281548110610894577f4e487b7100000000000000000000000000000000000000000000000000000000600052603260045260246000fd5b9060005260206000200160006101000a81548173ffffffffffffffffffffffffffffffffffffffff021916908373ffffffffffffffffffffffffffffffffffffffff16021790555081805480610913577f4e487b7100000000000000000000000000000000000000000000000000000000600052603160045260246000fd5b6001900381819060005260206000200160006101000a81549073ffffffffffffffffffffffffffffffffffffffff02191690559055610960565b80806109589061154d565b915050610744565b505050505050565b600160205281600052604060002081805160208101820180518482526020830160208501208183528095505050505050600091509150508060000180546109ae9061151b565b80601f01602080910402602001604051908101604052809291908181526020018280546109da9061151b565b8015610a275780601f106109fc57610100808354040283529160200191610a27565b820191906000526020600020905b815481529060010190602001808311610a0a57829003601f168201915b5050505050905081565b60008082604051610a4291906112e1565b908152602001604051809103902054905060028181548110610a8d577f4e487b7100000000000000000000000000000000000000000000000000000000600052603260045260246000fd5b9060005260206000200160008082016000610aa89190610be7565b5050600082604051610aba91906112e1565b9081526020016040518091039020600090555050565b60008083604051610ae191906112e1565b90815260200160405180910390205490506040518060400160405280838152602001600067ffffffffffffffff811115610b44577f4e487b7100000000000000000000000000000000000000000000000000000000600052604160045260246000fd5b604051908082528060200260200182016040528015610b725781602001602082028036833780820191505090505b508152506001600083815260200190815260200160002083604051610b9791906112e1565b90815260200160405180910390206000820151816000019080519060200190610bc1929190610c48565b506020820151816001019080519060200190610bde929190610ce8565b50905050505050565b508054610bf39061151b565b6000825580601f10610c055750610c24565b601f016020900490600052602060002090810190610c239190610d72565b5b50565b5080546000825590600052602060002090810190610c459190610d72565b50565b828054610c549061151b565b90600052602060002090601f016020900481019282610c765760008555610cbd565b82601f10610c8f57805160ff1916838001178555610cbd565b82800160010185558215610cbd579182015b82811115610cbc578251825591602001919060010190610ca1565b5b509050610cca9190610d72565b5090565b604051806040016040528060608152602001606081525090565b828054828255906000526020600020908101928215610d61579160200282015b82811115610d605782518260006101000a81548173ffffffffffffffffffffffffffffffffffffffff021916908373ffffffffffffffffffffffffffffffffffffffff16021790555091602001919060010190610d08565b5b509050610d6e9190610d72565b5090565b5b80821115610d8b576000816000905550600101610d73565b5090565b6000610da2610d9d8461138f565b61135e565b905082815260208101848484011115610dba57600080fd5b610dc58482856114d9565b509392505050565b600081359050610ddc81611634565b92915050565b60008083601f840112610df457600080fd5b8235905067ffffffffffffffff811115610e0d57600080fd5b602083019150836001820283011115610e2557600080fd5b9250929050565b600082601f830112610e3d57600080fd5b8135610e4d848260208601610d8f565b91505092915050565b600081359050610e658161164b565b92915050565b600060208284031215610e7d57600080fd5b600082013567ffffffffffffffff811115610e9757600080fd5b610ea384828501610e2c565b91505092915050565b600080600060408486031215610ec157600080fd5b600084013567ffffffffffffffff811115610edb57600080fd5b610ee786828701610e2c565b935050602084013567ffffffffffffffff811115610f0457600080fd5b610f1086828701610de2565b92509250509250925092565b60008060408385031215610f2f57600080fd5b600083013567ffffffffffffffff811115610f4957600080fd5b610f5585828601610e2c565b925050602083013567ffffffffffffffff811115610f7257600080fd5b610f7e85828601610e2c565b9150509250929050565b600080600060608486031215610f9d57600080fd5b600084013567ffffffffffffffff811115610fb757600080fd5b610fc386828701610e2c565b935050602084013567ffffffffffffffff811115610fe057600080fd5b610fec86828701610e2c565b9250506040610ffd86828701610dcd565b9150509250925092565b60006020828403121561101957600080fd5b600061102784828501610e56565b91505092915050565b6000806040838503121561104357600080fd5b600061105185828601610e56565b925050602083013567ffffffffffffffff81111561106e57600080fd5b61107a85828601610e2c565b9150509250929050565b600061109083836110b0565b60208301905092915050565b60006110a8838361125a565b905092915050565b6110b98161149d565b82525050565b60006110ca826113df565b6110d4818561141a565b93506110df836113bf565b8060005b838110156111105781516110f78882611084565b975061110283611400565b9250506001810190506110e3565b5085935050505092915050565b6000611128826113ea565b611132818561142b565b935083602082028501611144856113cf565b8060005b858110156111805784840389528151611161858261109c565b945061116c8361140d565b925060208a01995050600181019050611148565b50829750879550505050505092915050565b600061119e838561145e565b93506111ab8385846114d9565b82840190509392505050565b60006111c2826113f5565b6111cc818561143c565b93506111dc8185602086016114e8565b6111e581611623565b840191505092915050565b60006111fb826113f5565b611205818561144d565b93506112158185602086016114e8565b61121e81611623565b840191505092915050565b6000611234826113f5565b61123e818561145e565b935061124e8185602086016114e8565b80840191505092915050565b6000602083016000830151848203600086015261127782826111b7565b9150508091505092915050565b600060408301600083015184820360008601526112a182826111b7565b915050602083015184820360208601526112bb82826110bf565b9150508091505092915050565b60006112d5828486611192565b91508190509392505050565b60006112ed8284611229565b915081905092915050565b60006020820190508181036000830152611312818461111d565b905092915050565b6000602082019050818103600083015261133481846111f0565b905092915050565b600060208201905081810360008301526113568184611284565b905092915050565b6000604051905081810181811067ffffffffffffffff82111715611385576113846115f4565b5b8060405250919050565b600067ffffffffffffffff8211156113aa576113a96115f4565b5b601f19601f8301169050602081019050919050565b6000819050602082019050919050565b6000819050602082019050919050565b600081519050919050565b600081519050919050565b600081519050919050565b6000602082019050919050565b6000602082019050919050565b600082825260208201905092915050565b600082825260208201905092915050565b600082825260208201905092915050565b600082825260208201905092915050565b600081905092915050565b6000611474826114cf565b915061147f836114cf565b92508282101561149257611491611596565b5b828203905092915050565b60006114a8826114af565b9050919050565b600073ffffffffffffffffffffffffffffffffffffffff82169050919050565b6000819050919050565b82818337600083830152505050565b60005b838110156115065780820151818401526020810190506114eb565b83811115611515576000848401525b50505050565b6000600282049050600182168061153357607f821691505b60208210811415611547576115466115c5565b5b50919050565b6000611558826114cf565b91507fffffffffffffffffffffffffffffffffffffffffffffffffffffffffffffffff82141561158b5761158a611596565b5b600182019050919050565b7f4e487b7100000000000000000000000000000000000000000000000000000000600052601160045260246000fd5b7f4e487b7100000000000000000000000000000000000000000000000000000000600052602260045260246000fd5b7f4e487b7100000000000000000000000000000000000000000000000000000000600052604160045260246000fd5b6000601f19601f8301169050919050565b61163d8161149d565b811461164857600080fd5b50565b611654816114cf565b811461165f57600080fd5b5056fea2646970667358221220b06a6cfe4a4573fb8694fa93d3692a5089d1d30d38fba6040d880527850acf3864736f6c63430008000033",
  "linkReferences": {},
  "deployedLinkReferences": {}
}